{
  "contractName": "TotosList",
  "abi": [
    {
      "constant": true,
      "inputs": [],
      "name": "totoCount",
      "outputs": [
        {
          "internalType": "uint256",
          "name": "",
          "type": "uint256"
        }
      ],
      "payable": false,
      "stateMutability": "view",
      "type": "function"
    }
  ],
  "bytecode": "0x608060405260008055348015601357600080fd5b506084806100226000396000f3fe6080604052348015600f57600080fd5b506004361060285760003560e01c806386ee1c0f14602d575b600080fd5b60336049565b6040518082815260200191505060405180910390f35b6000548156fea265627a7a72315820206a3ee8c24241f791d6bc7343d961110dcf1613f7d4a678b8e160b9b4453ebf64736f6c63430005100032",
  "source": "pragma solidity ^0.5.0;\n\ncontract TotosList {\n  // Starter\n  uint public totoCount = 0;\n}",
  "sourcePath": "/Users/sokos6/Development/cryptofrequency/totoscrypt/contracts/TotosList.sol",
  "compiler": {
    "name": "solc",
    "version": "0.5.16+commit.9c3226ce.Emscripten.clang"
  },
  "schemaVersion": "3.3.3",
  "updatedAt": "2021-01-31T05:18:40.910Z",
  "networkType": "ethereum",
  "devdoc": {
    "methods": {}
  },
  "userdoc": {
    "methods": {}
  }
}